{
  "_format": "hh-sol-artifact-1",
  "contractName": "ReentrantAttacker",
  "sourceName": "contracts/mocks/ReentrantAttacker.sol",
  "abi": [
    {
      "inputs": [
        {
          "internalType": "contract IOTCDesk",
          "name": "desk_",
          "type": "address"
        }
      ],
      "stateMutability": "nonpayable",
      "type": "constructor"
    },
    {
      "inputs": [],
      "name": "desk",
      "outputs": [
        {
          "internalType": "contract IOTCDesk",
          "name": "",
          "type": "address"
        }
      ],
      "stateMutability": "view",
      "type": "function"
    },
    {
      "inputs": [
        {
          "internalType": "uint256",
          "name": "tokenAmount",
          "type": "uint256"
        }
      ],
      "name": "makeOffer",
      "outputs": [
        {
          "internalType": "uint256",
          "name": "",
          "type": "uint256"
        }
      ],
      "stateMutability": "nonpayable",
      "type": "function"
    },
    {
      "inputs": [
        {
          "internalType": "uint256",
          "name": "offerId",
          "type": "uint256"
        },
        {
          "internalType": "uint256",
          "name": "requiredWei",
          "type": "uint256"
        },
        {
          "internalType": "uint256",
          "name": "extraWei",
          "type": "uint256"
        }
      ],
      "name": "payWithExcess",
      "outputs": [],
      "stateMutability": "payable",
      "type": "function"
    },
    {
      "inputs": [],
      "name": "targetOfferId",
      "outputs": [
        {
          "internalType": "uint256",
          "name": "",
          "type": "uint256"
        }
      ],
      "stateMutability": "view",
      "type": "function"
    },
    {
      "stateMutability": "payable",
      "type": "receive"
    }
  ],
  "bytecode": "0x608034607057601f61035538819003918201601f19168301916001600160401b03831184841017607557808492602094604052833981010312607057516001600160a01b03811690819003607057600080546001600160a01b0319169190911790556040516102c9908161008c8239f35b600080fd5b634e487b7160e01b600052604160045260246000fdfe6080806040526004361015610067575b50361561001b57600080fd5b6000805460015482916001600160a01b0316803b156100635760248392604051948593849263ef706adf60e01b845260048401525af161005757005b816100619161025b565b005b5050fd5b600090813560e01c9081633dbd13a51461023f575080639909b4ee146101755780639a2f6474146100c55763c12b293c0361000f57346100c257806003193601126100c257546040516001600160a01b039091168152602090f35b80fd5b50346100c25760203660031901126100c25780602060018060a01b03825416608460405180948193636087798960e01b835260043560048401528160248401528160448401528160648401525af190811561016a578291610130575b60208280600155604051908152f35b90506020813d602011610162575b8161014b6020938361025b565b8101031261015e57602091505138610121565b5080fd5b3d915061013e565b6040513d84823e3d90fd5b5060603660031901126100c257600435602435604435810180911161022b5734036101fa57600181905581546001600160a01b0316908290823b1561015e57819060246040518095819363c78545d960e01b8352600483015234905af180156101ed576101df5780f35b6101e89161025b565b388180f35b50604051903d90823e3d90fd5b60405162461bcd60e51b81526020600482015260096024820152686261642076616c756560b81b6044820152606490fd5b634e487b7160e01b83526011600452602483fd5b90503461015e578160031936011261015e576020906001548152f35b90601f8019910116810190811067ffffffffffffffff82111761027d57604052565b634e487b7160e01b600052604160045260246000fdfea264697066735822122006ce975f803663a858d38571333abf78a5d200fc43e3dd6b0e2f0c65e3e4f47364736f6c634300081c0033",
  "linkReferences": {},
  "deployedLinkReferences": {}
}