{
  "_format": "hh-sol-artifact-1",
  "contractName": "OTC",
  "sourceName": "contracts/OTC.sol",
  "abi": [
    {
      "inputs": [
        {
          "internalType": "address",
          "name": "owner_",
          "type": "address"
        },
        {
          "internalType": "contract IERC20",
          "name": "token_",
          "type": "address"
        },
        {
          "internalType": "contract IERC20",
          "name": "usdc_",
          "type": "address"
        },
        {
          "internalType": "contract AggregatorV3Interface",
          "name": "tokenUsdFeed_",
          "type": "address"
        },
        {
          "internalType": "contract AggregatorV3Interface",
          "name": "ethUsdFeed_",
          "type": "address"
        },
        {
          "internalType": "address",
          "name": "agent_",
          "type": "address"
        }
      ],
      "stateMutability": "nonpayable",
      "type": "constructor"
    },
    {
      "inputs": [],
      "name": "EnforcedPause",
      "type": "error"
    },
    {
      "inputs": [],
      "name": "ExpectedPause",
      "type": "error"
    },
    {
      "inputs": [
        {
          "internalType": "address",
          "name": "owner",
          "type": "address"
        }
      ],
      "name": "OwnableInvalidOwner",
      "type": "error"
    },
    {
      "inputs": [
        {
          "internalType": "address",
          "name": "account",
          "type": "address"
        }
      ],
      "name": "OwnableUnauthorizedAccount",
      "type": "error"
    },
    {
      "inputs": [],
      "name": "ReentrancyGuardReentrantCall",
      "type": "error"
    },
    {
      "inputs": [
        {
          "internalType": "address",
          "name": "token",
          "type": "address"
        }
      ],
      "name": "SafeERC20FailedOperation",
      "type": "error"
    },
    {
      "anonymous": false,
      "inputs": [
        {
          "indexed": true,
          "internalType": "address",
          "name": "previous",
          "type": "address"
        },
        {
          "indexed": true,
          "internalType": "address",
          "name": "newAgent",
          "type": "address"
        }
      ],
      "name": "AgentUpdated",
      "type": "event"
    },
    {
      "anonymous": false,
      "inputs": [
        {
          "indexed": true,
          "internalType": "address",
          "name": "approver",
          "type": "address"
        },
        {
          "indexed": false,
          "internalType": "bool",
          "name": "allowed",
          "type": "bool"
        }
      ],
      "name": "ApproverUpdated",
      "type": "event"
    },
    {
      "anonymous": false,
      "inputs": [
        {
          "indexed": true,
          "internalType": "uint256",
          "name": "consignmentId",
          "type": "uint256"
        },
        {
          "indexed": true,
          "internalType": "bytes32",
          "name": "tokenId",
          "type": "bytes32"
        },
        {
          "indexed": true,
          "internalType": "address",
          "name": "consigner",
          "type": "address"
        },
        {
          "indexed": false,
          "internalType": "uint256",
          "name": "amount",
          "type": "uint256"
        }
      ],
      "name": "ConsignmentCreated",
      "type": "event"
    },
    {
      "anonymous": false,
      "inputs": [
        {
          "indexed": true,
          "internalType": "uint256",
          "name": "consignmentId",
          "type": "uint256"
        }
      ],
      "name": "ConsignmentUpdated",
      "type": "event"
    },
    {
      "anonymous": false,
      "inputs": [
        {
          "indexed": true,
          "internalType": "uint256",
          "name": "consignmentId",
          "type": "uint256"
        },
        {
          "indexed": false,
          "internalType": "uint256",
          "name": "amount",
          "type": "uint256"
        }
      ],
      "name": "ConsignmentWithdrawn",
      "type": "event"
    },
    {
      "anonymous": false,
      "inputs": [
        {
          "indexed": true,
          "internalType": "uint256",
          "name": "offerId",
          "type": "uint256"
        },
        {
          "indexed": true,
          "internalType": "address",
          "name": "recipient",
          "type": "address"
        },
        {
          "indexed": false,
          "internalType": "uint256",
          "name": "amount",
          "type": "uint256"
        },
        {
          "indexed": false,
          "internalType": "enum OTC.PaymentCurrency",
          "name": "currency",
          "type": "uint8"
        }
      ],
      "name": "EmergencyRefund",
      "type": "event"
    },
    {
      "anonymous": false,
      "inputs": [
        {
          "indexed": false,
          "internalType": "bool",
          "name": "enabled",
          "type": "bool"
        }
      ],
      "name": "EmergencyRefundEnabled",
      "type": "event"
    },
    {
      "anonymous": false,
      "inputs": [
        {
          "indexed": true,
          "internalType": "address",
          "name": "tokenUsdFeed",
          "type": "address"
        },
        {
          "indexed": true,
          "internalType": "address",
          "name": "ethUsdFeed",
          "type": "address"
        }
      ],
      "name": "FeedsUpdated",
      "type": "event"
    },
    {
      "anonymous": false,
      "inputs": [
        {
          "indexed": true,
          "internalType": "uint256",
          "name": "consignmentId",
          "type": "uint256"
        },
        {
          "indexed": false,
          "internalType": "uint256",
          "name": "amount",
          "type": "uint256"
        }
      ],
      "name": "GasDepositMade",
      "type": "event"
    },
    {
      "anonymous": false,
      "inputs": [
        {
          "indexed": true,
          "internalType": "uint256",
          "name": "consignmentId",
          "type": "uint256"
        },
        {
          "indexed": true,
          "internalType": "address",
          "name": "consigner",
          "type": "address"
        },
        {
          "indexed": false,
          "internalType": "uint256",
          "name": "amount",
          "type": "uint256"
        }
      ],
      "name": "GasDepositRefunded",
      "type": "event"
    },
    {
      "anonymous": false,
      "inputs": [
        {
          "indexed": true,
          "internalType": "address",
          "name": "agent",
          "type": "address"
        },
        {
          "indexed": false,
          "internalType": "uint256",
          "name": "amount",
          "type": "uint256"
        }
      ],
      "name": "GasDepositWithdrawn",
      "type": "event"
    },
    {
      "anonymous": false,
      "inputs": [
        {
          "indexed": false,
          "internalType": "uint256",
          "name": "minUsdAmount",
          "type": "uint256"
        },
        {
          "indexed": false,
          "internalType": "uint256",
          "name": "maxTokenPerOrder",
          "type": "uint256"
        },
        {
          "indexed": false,
          "internalType": "uint256",
          "name": "quoteExpirySeconds",
          "type": "uint256"
        },
        {
          "indexed": false,
          "internalType": "uint256",
          "name": "defaultUnlockDelaySeconds",
          "type": "uint256"
        }
      ],
      "name": "LimitsUpdated",
      "type": "event"
    },
    {
      "anonymous": false,
      "inputs": [
        {
          "indexed": false,
          "internalType": "uint256",
          "name": "maxFeedAgeSeconds",
          "type": "uint256"
        }
      ],
      "name": "MaxFeedAgeUpdated",
      "type": "event"
    },
    {
      "anonymous": false,
      "inputs": [
        {
          "indexed": true,
          "internalType": "uint256",
          "name": "id",
          "type": "uint256"
        },
        {
          "indexed": true,
          "internalType": "address",
          "name": "by",
          "type": "address"
        }
      ],
      "name": "OfferApproved",
      "type": "event"
    },
    {
      "anonymous": false,
      "inputs": [
        {
          "indexed": true,
          "internalType": "uint256",
          "name": "id",
          "type": "uint256"
        },
        {
          "indexed": true,
          "internalType": "address",
          "name": "by",
          "type": "address"
        }
      ],
      "name": "OfferCancelled",
      "type": "event"
    },
    {
      "anonymous": false,
      "inputs": [
        {
          "indexed": true,
          "internalType": "uint256",
          "name": "id",
          "type": "uint256"
        },
        {
          "indexed": true,
          "internalType": "address",
          "name": "beneficiary",
          "type": "address"
        },
        {
          "indexed": false,
          "internalType": "uint256",
          "name": "tokenAmount",
          "type": "uint256"
        },
        {
          "indexed": false,
          "internalType": "uint256",
          "name": "discountBps",
          "type": "uint256"
        },
        {
          "indexed": false,
          "internalType": "enum OTC.PaymentCurrency",
          "name": "currency",
          "type": "uint8"
        }
      ],
      "name": "OfferCreated",
      "type": "event"
    },
    {
      "anonymous": false,
      "inputs": [
        {
          "indexed": true,
          "internalType": "uint256",
          "name": "id",
          "type": "uint256"
        },
        {
          "indexed": true,
          "internalType": "address",
          "name": "payer",
          "type": "address"
        },
        {
          "indexed": false,
          "internalType": "uint256",
          "name": "amountPaid",
          "type": "uint256"
        }
      ],
      "name": "OfferPaid",
      "type": "event"
    },
    {
      "anonymous": false,
      "inputs": [
        {
          "indexed": true,
          "internalType": "address",
          "name": "previousOwner",
          "type": "address"
        },
        {
          "indexed": true,
          "internalType": "address",
          "name": "newOwner",
          "type": "address"
        }
      ],
      "name": "OwnershipTransferred",
      "type": "event"
    },
    {
      "anonymous": false,
      "inputs": [
        {
          "indexed": false,
          "internalType": "address",
          "name": "account",
          "type": "address"
        }
      ],
      "name": "Paused",
      "type": "event"
    },
    {
      "anonymous": false,
      "inputs": [
        {
          "indexed": true,
          "internalType": "address",
          "name": "payer",
          "type": "address"
        },
        {
          "indexed": false,
          "internalType": "uint256",
          "name": "amount",
          "type": "uint256"
        }
      ],
      "name": "RefundFailed",
      "type": "event"
    },
    {
      "anonymous": false,
      "inputs": [
        {
          "indexed": false,
          "internalType": "bool",
          "name": "enabled",
          "type": "bool"
        }
      ],
      "name": "RequireApproverFulfillUpdated",
      "type": "event"
    },
    {
      "anonymous": false,
      "inputs": [
        {
          "indexed": false,
          "internalType": "uint256",
          "name": "newAmount",
          "type": "uint256"
        }
      ],
      "name": "RequiredGasDepositUpdated",
      "type": "event"
    },
    {
      "anonymous": false,
      "inputs": [
        {
          "indexed": false,
          "internalType": "bool",
          "name": "enabled",
          "type": "bool"
        }
      ],
      "name": "RestrictFulfillUpdated",
      "type": "event"
    },
    {
      "anonymous": false,
      "inputs": [
        {
          "indexed": true,
          "internalType": "address",
          "name": "to",
          "type": "address"
        },
        {
          "indexed": false,
          "internalType": "uint256",
          "name": "usdcAmount",
          "type": "uint256"
        },
        {
          "indexed": false,
          "internalType": "uint256",
          "name": "ethAmount",
          "type": "uint256"
        }
      ],
      "name": "StableWithdrawn",
      "type": "event"
    },
    {
      "anonymous": false,
      "inputs": [
        {
          "indexed": false,
          "internalType": "uint256",
          "name": "offersRemoved",
          "type": "uint256"
        }
      ],
      "name": "StorageCleaned",
      "type": "event"
    },
    {
      "anonymous": false,
      "inputs": [
        {
          "indexed": true,
          "internalType": "bytes32",
          "name": "tokenId",
          "type": "bytes32"
        },
        {
          "indexed": true,
          "internalType": "address",
          "name": "tokenAddress",
          "type": "address"
        },
        {
          "indexed": true,
          "internalType": "address",
          "name": "priceOracle",
          "type": "address"
        }
      ],
      "name": "TokenRegistered",
      "type": "event"
    },
    {
      "anonymous": false,
      "inputs": [
        {
          "indexed": true,
          "internalType": "uint256",
          "name": "id",
          "type": "uint256"
        },
        {
          "indexed": true,
          "internalType": "address",
          "name": "beneficiary",
          "type": "address"
        },
        {
          "indexed": false,
          "internalType": "uint256",
          "name": "amount",
          "type": "uint256"
        }
      ],
      "name": "TokensClaimed",
      "type": "event"
    },
    {
      "anonymous": false,
      "inputs": [
        {
          "indexed": false,
          "internalType": "address",
          "name": "account",
          "type": "address"
        }
      ],
      "name": "Unpaused",
      "type": "event"
    },
    {
      "inputs": [
        {
          "internalType": "uint256",
          "name": "offerId",
          "type": "uint256"
        }
      ],
      "name": "adminEmergencyWithdraw",
      "outputs": [],
      "stateMutability": "nonpayable",
      "type": "function"
    },
    {
      "inputs": [],
      "name": "agent",
      "outputs": [
        {
          "internalType": "address",
          "name": "",
          "type": "address"
        }
      ],
      "stateMutability": "view",
      "type": "function"
    },
    {
      "inputs": [
        {
          "internalType": "uint256",
          "name": "",
          "type": "uint256"
        }
      ],
      "name": "approvalCount",
      "outputs": [
        {
          "internalType": "uint256",
          "name": "",
          "type": "uint256"
        }
      ],
      "stateMutability": "view",
      "type": "function"
    },
    {
      "inputs": [
        {
          "internalType": "uint256",
          "name": "offerId",
          "type": "uint256"
        }
      ],
      "name": "approveOffer",
      "outputs": [],
      "stateMutability": "nonpayable",
      "type": "function"
    },
    {
      "inputs": [
        {
          "internalType": "uint256[]",
          "name": "offerIds",
          "type": "uint256[]"
        }
      ],
      "name": "autoClaim",
      "outputs": [],
      "stateMutability": "nonpayable",
      "type": "function"
    },
    {
      "inputs": [
        {
          "internalType": "bytes32",
          "name": "tokenId",
          "type": "bytes32"
        }
      ],
      "name": "availableTokenInventoryForToken",
      "outputs": [
        {
          "internalType": "uint256",
          "name": "",
          "type": "uint256"
        }
      ],
      "stateMutability": "view",
      "type": "function"
    },
    {
      "inputs": [
        {
          "internalType": "uint256",
          "name": "offerId",
          "type": "uint256"
        }
      ],
      "name": "cancelOffer",
      "outputs": [],
      "stateMutability": "nonpayable",
      "type": "function"
    },
    {
      "inputs": [
        {
          "internalType": "uint256",
          "name": "offerId",
          "type": "uint256"
        }
      ],
      "name": "claim",
      "outputs": [],
      "stateMutability": "nonpayable",
      "type": "function"
    },
    {
      "inputs": [
        {
          "internalType": "uint256",
          "name": "maxToClean",
          "type": "uint256"
        }
      ],
      "name": "cleanupExpiredOffers",
      "outputs": [],
      "stateMutability": "nonpayable",
      "type": "function"
    },
    {
      "inputs": [
        {
          "internalType": "uint256",
          "name": "",
          "type": "uint256"
        }
      ],
      "name": "consignmentGasDeposit",
      "outputs": [
        {
          "internalType": "uint256",
          "name": "",
          "type": "uint256"
        }
      ],
      "stateMutability": "view",
      "type": "function"
    },
    {
      "inputs": [
        {
          "internalType": "uint256",
          "name": "",
          "type": "uint256"
        }
      ],
      "name": "consignments",
      "outputs": [
        {
          "internalType": "bytes32",
          "name": "tokenId",
          "type": "bytes32"
        },
        {
          "internalType": "address",
          "name": "consigner",
          "type": "address"
        },
        {
          "internalType": "uint256",
          "name": "totalAmount",
          "type": "uint256"
        },
        {
          "internalType": "uint256",
          "name": "remainingAmount",
          "type": "uint256"
        },
        {
          "internalType": "bool",
          "name": "isNegotiable",
          "type": "bool"
        },
        {
          "internalType": "uint16",
          "name": "fixedDiscountBps",
          "type": "uint16"
        },
        {
          "internalType": "uint32",
          "name": "fixedLockupDays",
          "type": "uint32"
        },
        {
          "internalType": "uint16",
          "name": "minDiscountBps",
          "type": "uint16"
        },
        {
          "internalType": "uint16",
          "name": "maxDiscountBps",
          "type": "uint16"
        },
        {
          "internalType": "uint32",
          "name": "minLockupDays",
          "type": "uint32"
        },
        {
          "internalType": "uint32",
          "name": "maxLockupDays",
          "type": "uint32"
        },
        {
          "internalType": "uint256",
          "name": "minDealAmount",
          "type": "uint256"
        },
        {
          "internalType": "uint256",
          "name": "maxDealAmount",
          "type": "uint256"
        },
        {
          "internalType": "bool",
          "name": "isFractionalized",
          "type": "bool"
        },
        {
          "internalType": "bool",
          "name": "isPrivate",
          "type": "bool"
        },
        {
          "internalType": "uint16",
          "name": "maxPriceVolatilityBps",
          "type": "uint16"
        },
        {
          "internalType": "uint32",
          "name": "maxTimeToExecute",
          "type": "uint32"
        },
        {
          "internalType": "bool",
          "name": "isActive",
          "type": "bool"
        },
        {
          "internalType": "uint256",
          "name": "createdAt",
          "type": "uint256"
        }
      ],
      "stateMutability": "view",
      "type": "function"
    },
    {
      "inputs": [
        {
          "internalType": "bytes32",
          "name": "tokenId",
          "type": "bytes32"
        },
        {
          "internalType": "uint256",
          "name": "amount",
          "type": "uint256"
        },
        {
          "internalType": "bool",
          "name": "isNegotiable",
          "type": "bool"
        },
        {
          "internalType": "uint16",
          "name": "fixedDiscountBps",
          "type": "uint16"
        },
        {
          "internalType": "uint32",
          "name": "fixedLockupDays",
          "type": "uint32"
        },
        {
          "internalType": "uint16",
          "name": "minDiscountBps",
          "type": "uint16"
        },
        {
          "internalType": "uint16",
          "name": "maxDiscountBps",
          "type": "uint16"
        },
        {
          "internalType": "uint32",
          "name": "minLockupDays",
          "type": "uint32"
        },
        {
          "internalType": "uint32",
          "name": "maxLockupDays",
          "type": "uint32"
        },
        {
          "internalType": "uint256",
          "name": "minDealAmount",
          "type": "uint256"
        },
        {
          "internalType": "uint256",
          "name": "maxDealAmount",
          "type": "uint256"
        },
        {
          "internalType": "bool",
          "name": "isFractionalized",
          "type": "bool"
        },
        {
          "internalType": "bool",
          "name": "isPrivate",
          "type": "bool"
        },
        {
          "internalType": "uint16",
          "name": "maxPriceVolatilityBps",
          "type": "uint16"
        },
        {
          "internalType": "uint32",
          "name": "maxTimeToExecute",
          "type": "uint32"
        }
      ],
      "name": "createConsignment",
      "outputs": [
        {
          "internalType": "uint256",
          "name": "",
          "type": "uint256"
        }
      ],
      "stateMutability": "payable",
      "type": "function"
    },
    {
      "inputs": [
        {
          "internalType": "uint256",
          "name": "tokenAmount",
          "type": "uint256"
        },
        {
          "internalType": "uint256",
          "name": "discountBps",
          "type": "uint256"
        },
        {
          "internalType": "enum OTC.PaymentCurrency",
          "name": "currency",
          "type": "uint8"
        },
        {
          "internalType": "uint256",
          "name": "lockupSeconds",
          "type": "uint256"
        }
      ],
      "name": "createOffer",
      "outputs": [
        {
          "internalType": "uint256",
          "name": "",
          "type": "uint256"
        }
      ],
      "stateMutability": "nonpayable",
      "type": "function"
    },
    {
      "inputs": [
        {
          "internalType": "uint256",
          "name": "consignmentId",
          "type": "uint256"
        },
        {
          "internalType": "uint256",
          "name": "tokenAmount",
          "type": "uint256"
        },
        {
          "internalType": "uint256",
          "name": "discountBps",
          "type": "uint256"
        },
        {
          "internalType": "enum OTC.PaymentCurrency",
          "name": "currency",
          "type": "uint8"
        },
        {
          "internalType": "uint256",
          "name": "lockupSeconds",
          "type": "uint256"
        }
      ],
      "name": "createOfferFromConsignment",
      "outputs": [
        {
          "internalType": "uint256",
          "name": "",
          "type": "uint256"
        }
      ],
      "stateMutability": "nonpayable",
      "type": "function"
    },
    {
      "inputs": [],
      "name": "defaultUnlockDelaySeconds",
      "outputs": [
        {
          "internalType": "uint256",
          "name": "",
          "type": "uint256"
        }
      ],
      "stateMutability": "view",
      "type": "function"
    },
    {
      "inputs": [
        {
          "internalType": "uint256",
          "name": "offerId",
          "type": "uint256"
        }
      ],
      "name": "emergencyRefund",
      "outputs": [],
      "stateMutability": "nonpayable",
      "type": "function"
    },
    {
      "inputs": [],
      "name": "emergencyRefundDeadline",
      "outputs": [
        {
          "internalType": "uint256",
          "name": "",
          "type": "uint256"
        }
      ],
      "stateMutability": "view",
      "type": "function"
    },
    {
      "inputs": [],
      "name": "emergencyRefundsEnabled",
      "outputs": [
        {
          "internalType": "bool",
          "name": "",
          "type": "bool"
        }
      ],
      "stateMutability": "view",
      "type": "function"
    },
    {
      "inputs": [],
      "name": "ethUsdFeed",
      "outputs": [
        {
          "internalType": "contract AggregatorV3Interface",
          "name": "",
          "type": "address"
        }
      ],
      "stateMutability": "view",
      "type": "function"
    },
    {
      "inputs": [
        {
          "internalType": "uint256",
          "name": "offerId",
          "type": "uint256"
        }
      ],
      "name": "fulfillOffer",
      "outputs": [],
      "stateMutability": "payable",
      "type": "function"
    },
    {
      "inputs": [
        {
          "internalType": "address",
          "name": "who",
          "type": "address"
        }
      ],
      "name": "getOffersForBeneficiary",
      "outputs": [
        {
          "internalType": "uint256[]",
          "name": "",
          "type": "uint256[]"
        }
      ],
      "stateMutability": "view",
      "type": "function"
    },
    {
      "inputs": [],
      "name": "getOpenOfferIds",
      "outputs": [
        {
          "internalType": "uint256[]",
          "name": "",
          "type": "uint256[]"
        }
      ],
      "stateMutability": "view",
      "type": "function"
    },
    {
      "inputs": [
        {
          "internalType": "address",
          "name": "",
          "type": "address"
        }
      ],
      "name": "isApprover",
      "outputs": [
        {
          "internalType": "bool",
          "name": "",
          "type": "bool"
        }
      ],
      "stateMutability": "view",
      "type": "function"
    },
    {
      "inputs": [],
      "name": "manualEthPrice",
      "outputs": [
        {
          "internalType": "uint256",
          "name": "",
          "type": "uint256"
        }
      ],
      "stateMutability": "view",
      "type": "function"
    },
    {
      "inputs": [],
      "name": "manualPriceTimestamp",
      "outputs": [
        {
          "internalType": "uint256",
          "name": "",
          "type": "uint256"
        }
      ],
      "stateMutability": "view",
      "type": "function"
    },
    {
      "inputs": [],
      "name": "manualTokenPrice",
      "outputs": [
        {
          "internalType": "uint256",
          "name": "",
          "type": "uint256"
        }
      ],
      "stateMutability": "view",
      "type": "function"
    },
    {
      "inputs": [],
      "name": "maxFeedAgeSeconds",
      "outputs": [
        {
          "internalType": "uint256",
          "name": "",
          "type": "uint256"
        }
      ],
      "stateMutability": "view",
      "type": "function"
    },
    {
      "inputs": [],
      "name": "maxLockupSeconds",
      "outputs": [
        {
          "internalType": "uint256",
          "name": "",
          "type": "uint256"
        }
      ],
      "stateMutability": "view",
      "type": "function"
    },
    {
      "inputs": [],
      "name": "maxOpenOffersToReturn",
      "outputs": [
        {
          "internalType": "uint256",
          "name": "",
          "type": "uint256"
        }
      ],
      "stateMutability": "view",
      "type": "function"
    },
    {
      "inputs": [],
      "name": "maxTokenPerOrder",
      "outputs": [
        {
          "internalType": "uint256",
          "name": "",
          "type": "uint256"
        }
      ],
      "stateMutability": "view",
      "type": "function"
    },
    {
      "inputs": [],
      "name": "minUsdAmount",
      "outputs": [
        {
          "internalType": "uint256",
          "name": "",
          "type": "uint256"
        }
      ],
      "stateMutability": "view",
      "type": "function"
    },
    {
      "inputs": [],
      "name": "nextConsignmentId",
      "outputs": [
        {
          "internalType": "uint256",
          "name": "",
          "type": "uint256"
        }
      ],
      "stateMutability": "view",
      "type": "function"
    },
    {
      "inputs": [],
      "name": "nextOfferId",
      "outputs": [
        {
          "internalType": "uint256",
          "name": "",
          "type": "uint256"
        }
      ],
      "stateMutability": "view",
      "type": "function"
    },
    {
      "inputs": [
        {
          "internalType": "uint256",
          "name": "",
          "type": "uint256"
        },
        {
          "internalType": "address",
          "name": "",
          "type": "address"
        }
      ],
      "name": "offerApprovals",
      "outputs": [
        {
          "internalType": "bool",
          "name": "",
          "type": "bool"
        }
      ],
      "stateMutability": "view",
      "type": "function"
    },
    {
      "inputs": [
        {
          "internalType": "uint256",
          "name": "",
          "type": "uint256"
        }
      ],
      "name": "offers",
      "outputs": [
        {
          "internalType": "uint256",
          "name": "consignmentId",
          "type": "uint256"
        },
        {
          "internalType": "bytes32",
          "name": "tokenId",
          "type": "bytes32"
        },
        {
          "internalType": "address",
          "name": "beneficiary",
          "type": "address"
        },
        {
          "internalType": "uint256",
          "name": "tokenAmount",
          "type": "uint256"
        },
        {
          "internalType": "uint256",
          "name": "discountBps",
          "type": "uint256"
        },
        {
          "internalType": "uint256",
          "name": "createdAt",
          "type": "uint256"
        },
        {
          "internalType": "uint256",
          "name": "unlockTime",
          "type": "uint256"
        },
        {
          "internalType": "uint256",
          "name": "priceUsdPerToken",
          "type": "uint256"
        },
        {
          "internalType": "uint256",
          "name": "maxPriceDeviation",
          "type": "uint256"
        },
        {
          "internalType": "uint256",
          "name": "ethUsdPrice",
          "type": "uint256"
        },
        {
          "internalType": "enum OTC.PaymentCurrency",
          "name": "currency",
          "type": "uint8"
        },
        {
          "internalType": "bool",
          "name": "approved",
          "type": "bool"
        },
        {
          "internalType": "bool",
          "name": "paid",
          "type": "bool"
        },
        {
          "internalType": "bool",
          "name": "fulfilled",
          "type": "bool"
        },
        {
          "internalType": "bool",
          "name": "cancelled",
          "type": "bool"
        },
        {
          "internalType": "address",
          "name": "payer",
          "type": "address"
        },
        {
          "internalType": "uint256",
          "name": "amountPaid",
          "type": "uint256"
        }
      ],
      "stateMutability": "view",
      "type": "function"
    },
    {
      "inputs": [
        {
          "internalType": "uint256",
          "name": "",
          "type": "uint256"
        }
      ],
      "name": "openOfferIds",
      "outputs": [
        {
          "internalType": "uint256",
          "name": "",
          "type": "uint256"
        }
      ],
      "stateMutability": "view",
      "type": "function"
    },
    {
      "inputs": [],
      "name": "owner",
      "outputs": [
        {
          "internalType": "address",
          "name": "",
          "type": "address"
        }
      ],
      "stateMutability": "view",
      "type": "function"
    },
    {
      "inputs": [],
      "name": "pause",
      "outputs": [],
      "stateMutability": "nonpayable",
      "type": "function"
    },
    {
      "inputs": [],
      "name": "paused",
      "outputs": [
        {
          "internalType": "bool",
          "name": "",
          "type": "bool"
        }
      ],
      "stateMutability": "view",
      "type": "function"
    },
    {
      "inputs": [],
      "name": "quoteExpirySeconds",
      "outputs": [
        {
          "internalType": "uint256",
          "name": "",
          "type": "uint256"
        }
      ],
      "stateMutability": "view",
      "type": "function"
    },
    {
      "inputs": [
        {
          "internalType": "bytes32",
          "name": "tokenId",
          "type": "bytes32"
        },
        {
          "internalType": "address",
          "name": "tokenAddress",
          "type": "address"
        },
        {
          "internalType": "address",
          "name": "priceOracle",
          "type": "address"
        }
      ],
      "name": "registerToken",
      "outputs": [],
      "stateMutability": "nonpayable",
      "type": "function"
    },
    {
      "inputs": [],
      "name": "renounceOwnership",
      "outputs": [],
      "stateMutability": "nonpayable",
      "type": "function"
    },
    {
      "inputs": [],
      "name": "requireApproverToFulfill",
      "outputs": [
        {
          "internalType": "bool",
          "name": "",
          "type": "bool"
        }
      ],
      "stateMutability": "view",
      "type": "function"
    },
    {
      "inputs": [],
      "name": "requiredApprovals",
      "outputs": [
        {
          "internalType": "uint256",
          "name": "",
          "type": "uint256"
        }
      ],
      "stateMutability": "view",
      "type": "function"
    },
    {
      "inputs": [
        {
          "internalType": "uint256",
          "name": "offerId",
          "type": "uint256"
        }
      ],
      "name": "requiredEthWei",
      "outputs": [
        {
          "internalType": "uint256",
          "name": "",
          "type": "uint256"
        }
      ],
      "stateMutability": "view",
      "type": "function"
    },
    {
      "inputs": [],
      "name": "requiredGasDepositPerConsignment",
      "outputs": [
        {
          "internalType": "uint256",
          "name": "",
          "type": "uint256"
        }
      ],
      "stateMutability": "view",
      "type": "function"
    },
    {
      "inputs": [
        {
          "internalType": "uint256",
          "name": "offerId",
          "type": "uint256"
        }
      ],
      "name": "requiredUsdcAmount",
      "outputs": [
        {
          "internalType": "uint256",
          "name": "",
          "type": "uint256"
        }
      ],
      "stateMutability": "view",
      "type": "function"
    },
    {
      "inputs": [],
      "name": "restrictFulfillToBeneficiaryOrApprover",
      "outputs": [
        {
          "internalType": "bool",
          "name": "",
          "type": "bool"
        }
      ],
      "stateMutability": "view",
      "type": "function"
    },
    {
      "inputs": [
        {
          "internalType": "address",
          "name": "newAgent",
          "type": "address"
        }
      ],
      "name": "setAgent",
      "outputs": [],
      "stateMutability": "nonpayable",
      "type": "function"
    },
    {
      "inputs": [
        {
          "internalType": "address",
          "name": "a",
          "type": "address"
        },
        {
          "internalType": "bool",
          "name": "allowed",
          "type": "bool"
        }
      ],
      "name": "setApprover",
      "outputs": [],
      "stateMutability": "nonpayable",
      "type": "function"
    },
    {
      "inputs": [
        {
          "internalType": "bool",
          "name": "enabled",
          "type": "bool"
        }
      ],
      "name": "setEmergencyRefund",
      "outputs": [],
      "stateMutability": "nonpayable",
      "type": "function"
    },
    {
      "inputs": [
        {
          "internalType": "uint256",
          "name": "days_",
          "type": "uint256"
        }
      ],
      "name": "setEmergencyRefundDeadline",
      "outputs": [],
      "stateMutability": "nonpayable",
      "type": "function"
    },
    {
      "inputs": [
        {
          "internalType": "contract AggregatorV3Interface",
          "name": "tokenUsd",
          "type": "address"
        },
        {
          "internalType": "contract AggregatorV3Interface",
          "name": "ethUsd",
          "type": "address"
        }
      ],
      "name": "setFeeds",
      "outputs": [],
      "stateMutability": "nonpayable",
      "type": "function"
    },
    {
      "inputs": [
        {
          "internalType": "uint256",
          "name": "minUsd",
          "type": "uint256"
        },
        {
          "internalType": "uint256",
          "name": "maxToken",
          "type": "uint256"
        },
        {
          "internalType": "uint256",
          "name": "expirySecs",
          "type": "uint256"
        },
        {
          "internalType": "uint256",
          "name": "unlockDelaySecs",
          "type": "uint256"
        }
      ],
      "name": "setLimits",
      "outputs": [],
      "stateMutability": "nonpayable",
      "type": "function"
    },
    {
      "inputs": [
        {
          "internalType": "uint256",
          "name": "tokenPrice",
          "type": "uint256"
        },
        {
          "internalType": "uint256",
          "name": "ethPrice",
          "type": "uint256"
        },
        {
          "internalType": "bool",
          "name": "useManual",
          "type": "bool"
        }
      ],
      "name": "setManualPrices",
      "outputs": [],
      "stateMutability": "nonpayable",
      "type": "function"
    },
    {
      "inputs": [
        {
          "internalType": "uint256",
          "name": "secs",
          "type": "uint256"
        }
      ],
      "name": "setMaxFeedAge",
      "outputs": [],
      "stateMutability": "nonpayable",
      "type": "function"
    },
    {
      "inputs": [
        {
          "internalType": "uint256",
          "name": "maxSecs",
          "type": "uint256"
        }
      ],
      "name": "setMaxLockup",
      "outputs": [],
      "stateMutability": "nonpayable",
      "type": "function"
    },
    {
      "inputs": [
        {
          "internalType": "bool",
          "name": "enabled",
          "type": "bool"
        }
      ],
      "name": "setRequireApproverToFulfill",
      "outputs": [],
      "stateMutability": "nonpayable",
      "type": "function"
    },
    {
      "inputs": [
        {
          "internalType": "uint256",
          "name": "required",
          "type": "uint256"
        }
      ],
      "name": "setRequiredApprovals",
      "outputs": [],
      "stateMutability": "nonpayable",
      "type": "function"
    },
    {
      "inputs": [
        {
          "internalType": "uint256",
          "name": "amount",
          "type": "uint256"
        }
      ],
      "name": "setRequiredGasDeposit",
      "outputs": [],
      "stateMutability": "nonpayable",
      "type": "function"
    },
    {
      "inputs": [
        {
          "internalType": "bool",
          "name": "enabled",
          "type": "bool"
        }
      ],
      "name": "setRestrictFulfill",
      "outputs": [],
      "stateMutability": "nonpayable",
      "type": "function"
    },
    {
      "inputs": [],
      "name": "token",
      "outputs": [
        {
          "internalType": "contract IERC20",
          "name": "",
          "type": "address"
        }
      ],
      "stateMutability": "view",
      "type": "function"
    },
    {
      "inputs": [],
      "name": "tokenDecimals",
      "outputs": [
        {
          "internalType": "uint8",
          "name": "",
          "type": "uint8"
        }
      ],
      "stateMutability": "view",
      "type": "function"
    },
    {
      "inputs": [
        {
          "internalType": "bytes32",
          "name": "",
          "type": "bytes32"
        }
      ],
      "name": "tokenDeposited",
      "outputs": [
        {
          "internalType": "uint256",
          "name": "",
          "type": "uint256"
        }
      ],
      "stateMutability": "view",
      "type": "function"
    },
    {
      "inputs": [
        {
          "internalType": "uint256",
          "name": "",
          "type": "uint256"
        }
      ],
      "name": "tokenList",
      "outputs": [
        {
          "internalType": "bytes32",
          "name": "",
          "type": "bytes32"
        }
      ],
      "stateMutability": "view",
      "type": "function"
    },
    {
      "inputs": [
        {
          "internalType": "bytes32",
          "name": "",
          "type": "bytes32"
        }
      ],
      "name": "tokenReserved",
      "outputs": [
        {
          "internalType": "uint256",
          "name": "",
          "type": "uint256"
        }
      ],
      "stateMutability": "view",
      "type": "function"
    },
    {
      "inputs": [],
      "name": "tokenUsdFeed",
      "outputs": [
        {
          "internalType": "contract AggregatorV3Interface",
          "name": "",
          "type": "address"
        }
      ],
      "stateMutability": "view",
      "type": "function"
    },
    {
      "inputs": [
        {
          "internalType": "bytes32",
          "name": "",
          "type": "bytes32"
        }
      ],
      "name": "tokens",
      "outputs": [
        {
          "internalType": "address",
          "name": "tokenAddress",
          "type": "address"
        },
        {
          "internalType": "uint8",
          "name": "decimals",
          "type": "uint8"
        },
        {
          "internalType": "bool",
          "name": "isActive",
          "type": "bool"
        },
        {
          "internalType": "address",
          "name": "priceOracle",
          "type": "address"
        }
      ],
      "stateMutability": "view",
      "type": "function"
    },
    {
      "inputs": [
        {
          "internalType": "uint256",
          "name": "offerId",
          "type": "uint256"
        }
      ],
      "name": "totalUsdForOffer",
      "outputs": [
        {
          "internalType": "uint256",
          "name": "",
          "type": "uint256"
        }
      ],
      "stateMutability": "view",
      "type": "function"
    },
    {
      "inputs": [
        {
          "internalType": "address",
          "name": "newOwner",
          "type": "address"
        }
      ],
      "name": "transferOwnership",
      "outputs": [],
      "stateMutability": "nonpayable",
      "type": "function"
    },
    {
      "inputs": [],
      "name": "unpause",
      "outputs": [],
      "stateMutability": "nonpayable",
      "type": "function"
    },
    {
      "inputs": [],
      "name": "usdc",
      "outputs": [
        {
          "internalType": "contract IERC20",
          "name": "",
          "type": "address"
        }
      ],
      "stateMutability": "view",
      "type": "function"
    },
    {
      "inputs": [],
      "name": "useManualPrices",
      "outputs": [
        {
          "internalType": "bool",
          "name": "",
          "type": "bool"
        }
      ],
      "stateMutability": "view",
      "type": "function"
    },
    {
      "inputs": [
        {
          "internalType": "uint256",
          "name": "consignmentId",
          "type": "uint256"
        }
      ],
      "name": "withdrawConsignment",
      "outputs": [],
      "stateMutability": "nonpayable",
      "type": "function"
    },
    {
      "inputs": [
        {
          "internalType": "uint256[]",
          "name": "consignmentIds",
          "type": "uint256[]"
        }
      ],
      "name": "withdrawGasDeposits",
      "outputs": [],
      "stateMutability": "nonpayable",
      "type": "function"
    },
    {
      "inputs": [
        {
          "internalType": "address",
          "name": "to",
          "type": "address"
        },
        {
          "internalType": "uint256",
          "name": "usdcAmount",
          "type": "uint256"
        },
        {
          "internalType": "uint256",
          "name": "ethAmount",
          "type": "uint256"
        }
      ],
      "name": "withdrawStable",
      "outputs": [],
      "stateMutability": "nonpayable",
      "type": "function"
    },
    {
      "stateMutability": "payable",
      "type": "receive"
    }
  ],
  "bytecode": "0x60e080604052346104bb5760c08161590d803803809161001f82856104c0565b8339810103126104bb57610032816104f9565b61003e602083016104f9565b9061004b604084016104f9565b92610058606082016104f9565b61007060a0610069608085016104f9565b93016104f9565b6001600160a01b039093169384156104a557600080546001600160a01b031981168717825560405196916001600160a01b03909116907f8be0079c531659141344cd1fd0a4f28419497f9722a3daafe3b4186f6b6457e09080a360018055600160055560ff19600b5416600b55631dcd6500600c5569021e19e0c9bab2400000600d55610708600e556000600f55610e106010556301e13380601155606460125561ffff196013541660135566038d7ea4c680006017556001601a556001601d5560ff196021541660215562278d0060225560018060a01b0381169485151580610493575b15610464575060805260c0859052600680546001600160a01b039283166001600160a01b0319918216811790925560078054948416948216851790556018805495909316941693909317905560405163313ce56760e01b81529091602090829060049082905afa9081156103475760089160ff91600091610445575b5016036104005760206004916040519283809263313ce56760e01b82525afa9081156103475760089160ff916000916103e1575b5016036103a85760206004916040519283809263313ce56760e01b82525afa90811561034757600091610389575b50601260ff8216116103535760a05260405163313ce56760e01b815290602090829060049082906001600160a01b03165afa9081156103475760069160ff91600091610318575b5016036102e3576040516153e69081610527823960805181818161037a0152818161229801528181612db60152613791015260a051818181612e43015281816136050152614bff015260c05181818161058b01528181610c490152818161280901526135bc0152f35b60405162461bcd60e51b815260206004820152600d60248201526c7573646320646563696d616c7360981b6044820152606490fd5b61033a915060203d602011610340575b61033281836104c0565b81019061050d565b3861027a565b503d610328565b6040513d6000823e3d90fd5b60405162461bcd60e51b815260206004820152600e60248201526d746f6b656e20646563696d616c7360901b6044820152606490fd5b6103a2915060203d6020116103405761033281836104c0565b38610233565b60405162461bcd60e51b8152602060048201526011602482015270657468206665656420646563696d616c7360781b6044820152606490fd5b6103fa915060203d6020116103405761033281836104c0565b38610205565b60405162461bcd60e51b815260206004820152601360248201527f746f6b656e206665656420646563696d616c73000000000000000000000000006044820152606490fd5b61045e915060203d6020116103405761033281836104c0565b386101d1565b62461bcd60e51b815260206004820152600a60248201526962616420746f6b656e7360b01b6044820152606490fd5b506001600160a01b0387161515610155565b631e4fbdf760e01b600052600060045260246000fd5b600080fd5b601f909101601f19168101906001600160401b038211908210176104e357604052565b634e487b7160e01b600052604160045260246000fd5b51906001600160a01b03821682036104bb57565b908160209103126104bb575160ff811681036104bb579056fe6080604052600436101561001b575b361561001957600080fd5b005b60003560e01c806304518e3d14614645578063062075cc1461461c5780631003c6f2146145895780631126270e14613f5557806311d69ceb14613ed3578063121284dc14613e6f5780631479cdba14613e51578063147cd36c14613e335780631ac6d8ba14613e155780632014b71c14613b3a578063222a242e14613abb57806326532163146138bd578063379607f514613698578063394cf10e146136755780633b2fb8c5146136295780633b97e856146135eb5780633e413bee146135a65780633f4ba83a1461353557806340569d2a1461351757806340ad01ea146134eb57806341ae69e214613453578063433fe9971461343557806348186b0b146134175780634c707d92146133f65780635415b754146133a957806356b33537146131fe57806358e3a77e146131e05780635c975abb146131ba5780635ef5f0291461319c5780635f5d06551461317e5780636087798914612d4b578063677aa97414612d2d5780636b2636ab14612a065780636d218e48146129c757806370e5deb914612606578063715018a6146125ad5780637244fe041461248c5780637c941a231461242e5780638009b7bd146124055780638456cb59146123a357806388b3729e1461216b5780638a72ea6a146120635780638ba84da11461203d5780638bc8966014611a105780638da5cb5b146119e75780638f2a8492146119c4578063904194a314611964578063923ea7471461193b57806399c1aadc1461191d5780639a3992d1146117095780639ead7222146116d1578063a075b7c714611653578063a0ab9067146113bf578063a1cd501814611213578063a5d7c10a14610fdd578063a600afa814610fb1578063bcf685ed14610f0c578063c55f69d914610ee0578063c719a53614610e82578063c78545d9146109f8578063ce8e4830146109da578063d22dbcf11461098c578063d3219efb1461096e578063d6a4f5e814610942578063d76fd2e7146108ba578063dadc1aea146107ef578063e343d9b4146107d1578063ebe19474146107ae578063ef706adf146105e7578063f0ee4a48146104ba578063f1f3d7861461049c578063f2fde38b14610413578063f52a70f2146103f5578063f5cf513b146103d7578063f5ff5c76146103ae5763fc0c546a0361000e57346103a95760003660031901126103a9576040517f00000000000000000000000000000000000000000000000000000000000000006001600160a01b03168152602090f35b600080fd5b346103a95760003660031901126103a9576018546040516001600160a01b039091168152602090f35b346103a95760003660031901126103a9576020600954604051908152f35b346103a95760003660031901126103a9576020600f54604051908152f35b346103a95760203660031901126103a95761042c6147f4565b610434614de4565b6001600160a01b0316801561048657600080546001600160a01b03198116831782556001600160a01b0316907f8be0079c531659141344cd1fd0a4f28419497f9722a3daafe3b4186f6b6457e09080a3005b631e4fbdf760e01b600052600060045260246000fd5b346103a95760003660031901126103a9576020601054604051908152f35b346103a95760603660031901126103a9576104d36147f4565b6024356044356104e1614de4565b6104e9614e76565b6001600160a01b0383169283156105b6578280610585575b50508061053f575b7facfca0845eda0bcbd22737cb8526cda0fb6e3deeac93ede1ecb1fabec14843fc9160409182519182526020820152a260018055005b600080808084875af16105506149b0565b506105095760405162461bcd60e51b815260206004820152600860248201526732ba34103c3332b960c11b6044820152606490fd5b6105af917f0000000000000000000000000000000000000000000000000000000000000000614e98565b8382610501565b60405162461bcd60e51b81526020600482015260096024820152683d32b9379030b2323960b91b6044820152606490fd5b346103a95760203660031901126103a957600435610603614e76565b61060b614e0d565b6000818152601e6020526040902060028101546001600160a01b03166106328115156148bb565b600a82019182549160ff8360101c1615806107a0575b1561076c573314808015610758575b8015610744575b801561072c575b156106fd576106ae575b5064ff00000000191664010000000017905533907f1f51377b3e685a0e2419f9bb4ba7c07ec54936353ba3d0fb3c6538dab6766222600080a360018055005b60050154600e546106be91614987565b42106106ca578361066f565b60405162461bcd60e51b815260206004820152600b60248201526a1b9bdd08195e1c1a5c995960aa1b6044820152606490fd5b60405162461bcd60e51b81526020600482015260076024820152660dcde40c2eae8d60cb1b6044820152606490fd5b5033600052601960205260ff60406000205416610665565b506018546001600160a01b0316331461065e565b506000546001600160a01b03163314610657565b60405162461bcd60e51b815260206004820152600c60248201526b185b1c9958591e481c185a5960a21b6044820152606490fd5b5060ff8360181c1615610648565b346103a95760003660031901126103a957602060ff600b54166040519015158152f35b346103a95760003660031901126103a9576020602254604051908152f35b346103a95760203660031901126103a95760043580600052601e60205260406000209061082960018060a01b0360028401541615156148bb565b60ff600a8301541660028110156108a45761087557602091600961084f61085e93614b6f565b91015480156108665790615282565b604051908152f35b5061086f615148565b90615282565b60405162461bcd60e51b81526020600482015260076024820152660dcdee8408aa8960cb1b6044820152606490fd5b634e487b7160e01b600052602160045260246000fd5b346103a95760403660031901126103a9576108d36147f4565b60243590811515908183036103a9577fc8821a874072ba4bd135632bdcea405b70de8b2a0693a9bf625bd1643c36d30591610939602092610912614de4565b60018060a01b031694856000526019845260406000209060ff801983541691151516179055565b604051908152a2005b346103a95760203660031901126103a95760043560005260166020526020604060002054604051908152f35b346103a95760003660031901126103a9576020601254604051908152f35b346103a95760203660031901126103a9576004356109a8614de4565b620151808102908082046201518014901517156109c457602255005b634e487b7160e01b600052601160045260246000fd5b346103a95760003660031901126103a9576020600c54604051908152f35b60203660031901126103a957600435610a0f614e76565b610a17614e0d565b6000818152601e6020526040902060028101546001600160a01b0316610a3e8115156148bb565b600a820180549160ff8360081c1615610e525760ff8360201c161580610e44575b80610e35575b610a6e90614af3565b610a7f6005850154600e5490614987565b4211610e065760135460ff8160081c16600014610d775750506018546001600160a01b031633148015610d5f575b15610d22575b6001830191825480610ca3575b5060ff610acc86614b6f565b911660028110156108a457610c35576009840154610af1919080156108665790615282565b91823410610bfd57600b84019290925580546201000064ffff010000600160c81b031990911665010000000000600160c81b033360281b161717815560ff915b600384015490546000526015602052610b506040600020918254614987565b905554169060028210156108a457600b9115610b9c575b0154906040519182527f7fb472248c81d2d2657ad1d37a15db0919a52022b105945bcded16294836943b60203393a360018055005b610ba982820154346149a3565b80610bb5575b50610b67565b600080808084335af1610bc66149b0565b50610baf576040519081527faf73b0b217208b61be286bbc37095bce7eb8b9ccf617244c2f0f154e8e04e3ff60203392a283610baf565b60405162461bcd60e51b815260206004820152601060248201526f0d2dce6eaccccd2c6d2cadce840cae8d60831b6044820152606490fd5b91610c4160ff93615260565b610c6d8130337f0000000000000000000000000000000000000000000000000000000000000000614e2d565b600b85015581546201000064ffff010000600160c81b031990911665010000000000600160c81b033360281b1617178255610b31565b600090815260026020526040902060010154610cc7906001600160a01b0316615209565b6007850154908180821115610d1357610cdf916149a3565b61271081029080820461271014901517156109c457610d0d91610d0191614b4f565b60088601541015614d98565b85610ac0565b90610d1d916149a3565b610cdf565b60405162461bcd60e51b815260206004820152601560248201527466756c66696c6c20617070726f766572206f6e6c7960581b6044820152606490fd5b5033600052601960205260ff60406000205416610aad565b60ff16610d85575b50610ab3565b33148015610df2575b8015610dda575b15610da05784610d7f565b60405162461bcd60e51b8152602060048201526012602482015271199d5b199a5b1b081c995cdd1c9a58dd195960721b6044820152606490fd5b5033600052601960205260ff60406000205416610d95565b506018546001600160a01b03163314610d8e565b60405162461bcd60e51b8152602060048201526007602482015266195e1c1a5c995960ca1b6044820152606490fd5b50601883901c60ff1615610a65565b5060ff8360101c1615610a5f565b60405162461bcd60e51b81526020600482015260086024820152673737ba1030b8383960c11b6044820152606490fd5b346103a95760203660031901126103a9577fd3f4cf26f9820e60d3c87594b7988281ea42db6a558d0670f6d98fd241c5cfbf6020610ebe614797565b610ec6614de4565b151560ff196021541660ff821617602155604051908152a1005b346103a95760203660031901126103a95760043560005260156020526020604060002054604051908152f35b346103a95760203660031901126103a957610f256147f4565b610f2d614de4565b6001600160a01b03168015610f7f57601854816001600160a01b0382167fee7760cb405d3beb1072ae2e716857daa45a5dd52bc1383a21173199d32c7dee600080a36001600160a01b03191617601855005b60405162461bcd60e51b815260206004820152600a6024820152691e995c9bc81859d95b9d60b21b6044820152606490fd5b346103a95760203660031901126103a95760043560005260146020526020604060002054604051908152f35b346103a95760203660031901126103a95760043560018060a01b0360185416331480156111fa575b61100e90614d0f565b611016614e0d565b6000818152601e60205260409020600281015461103d906001600160a01b031615156148bb565b600a81019061105c825460ff8160201c161590816111eb575b50614af3565b6000838152601b6020908152604080832033845290915290205460ff166111a65760018101548015611197576000908152600260205260409020600101546110ac906001600160a01b0316615209565b905b6007810154918280821115611187576110c6916149a3565b915b61271083029280840461271014901517156109c4576110ec6008916110f694614b4f565b9101541015614d98565b6000828152601b602090815260408083203384528252808320805460ff19166001179055848352601c9091529020805461112f90614994565b905581600052601c602052604060002054601a541115611174575b5033907f4a2698bb88989004e5a2f73686d0fe7c6c15b59414ffe31b59e2e3e7c15712ee600080a3005b805461ff0019166101001790558161114a565b90611191916149a3565b916110c8565b506111a0615008565b906110ae565b60405162461bcd60e51b815260206004820152601760248201527f616c726561647920617070726f76656420627920796f750000000000000000006044820152606490fd5b60ff915060101c161585611056565b503360009081526019602052604090205460ff16611005565b346103a9576112213661485a565b9060018060a01b0360185416331480156113a6575b61123f90614d0f565b611247614e76565b6112546032831115614d4a565b600091825b81811061132e578380156112e957600080808084335af16112786149b0565b50156112b0576040519081527f189a25b5a66c9052ffc86e78804792513df972ae1c9d28b04d3b6933a5c3835560203392a260018055005b60405162461bcd60e51b81526020600482015260116024820152701dda5d1a191c985dd85b0819985a5b1959607a1b6044820152606490fd5b60405162461bcd60e51b815260206004820152601b60248201527f6e6f20676173206465706f7369747320746f20776974686472617700000000006044820152606490fd5b611339818385614d88565b3580600052600460205260ff60076040600020015460401c16158061138f575b611367575b50600101611259565b60009081526016602052604081208054919055909360019161138891614987565b939061135e565b508060005260166020526040600020541515611359565b503360009081526019602052604090205460ff16611236565b346103a95760603660031901126103a9576004356113db61480a565b6044356001600160a01b0381169291908390036103a9576113fa614de4565b6000828152600260205260409020546001600160a01b031661161f576001600160a01b03169081156115eb5760405163313ce56760e01b8152602081600481865afa80156115df5760ff916000916115b0575b50166012811161157857600160405191611466836148f2565b84835260208084019182526040808501848152606086018981526000888152600290945291909220945185549351925160ff60a81b90151560a81b1660ff60a01b60a094851b166001600160b01b03199095169386901b86900391821661ffff60a01b1916939093179390931791909117845551929091018054929091166001600160a01b03166001600160a01b0319909216919091179055600354600160401b811015611562576115396115228260018594016003556147c1565b819391549060031b91821b91600019901b19161790565b90557fc6a8e30320e4c33a9a9edb5b316feb50477601b5a0fa02a493aa030cc9ca684e600080a4005b634e487b7160e01b600052604160045260246000fd5b60405162461bcd60e51b815260206004820152601060248201526f696e76616c696420646563696d616c7360801b6044820152606490fd5b6115d2915060203d6020116115d8575b6115ca818361492b565b810190614c28565b8561144d565b503d6115c0565b6040513d6000823e3d90fd5b60405162461bcd60e51b815260206004820152600c60248201526b7a65726f206164647265737360a01b6044820152606490fd5b60405162461bcd60e51b815260206004820152600c60248201526b746f6b656e2065786973747360a01b6044820152606490fd5b346103a95760803660031901126103a9577fe3eb5d4eccdae2d96efa105f65c8db865f9fc72984f2b879a27448fed50d1815608060043560643560443560243561169b614de4565b6116a9601154841115614c41565b83600c5580600d5581600e5582600f55604051938452602084015260408301526060820152a1005b346103a95760203660031901126103a9576004356003548110156103a9576116fa6020916147c1565b90549060031b1c604051908152f35b346103a95760203660031901126103a957600435611725614de4565b61172d614e76565b80600052601e602052604060002090600282019161175560018060a01b0384541615156148bb565b600a8101805460ff8160101c168061190f575b80611901575b156118cc57600683015462ed4e0081018091116109c45742106118875763010000009063ff0000001916179055600381019060018254910190815460005260156020526117c160406000209182546149a3565b90555460005260026020526040600020926040516117de816148f2565b606085549560ff60018060a01b03881697888552818160a01c16602086015260a81c16151560408401526001808060a01b039101541691015260018060a01b03905416928315611874575b8161185a602092867f880f2ef2613b092f1a0a819f294155c98667eb294b7e6bf7a3810278142c1a1c955491614e98565b546040519081526001600160a01b0390941693a360018055005b6000546001600160a01b03169350611829565b60405162461bcd60e51b815260206004820152601f60248201527f6d757374207761697420313830206461797320616674657220756e6c6f636b006044820152606490fd5b60405162461bcd60e51b815260206004820152600d60248201526c696e76616c696420737461746560981b6044820152606490fd5b5060ff8160201c161561176e565b5060ff8160181c1615611768565b346103a95760003660031901126103a9576020601a54604051908152f35b346103a95760003660031901126103a9576006546040516001600160a01b039091168152602090f35b346103a95760203660031901126103a9576004356000526002602052608060406000208054906001808060a01b039101541660ff6040519260018060a01b0381168452818160a01c16602085015260a81c16151560408301526060820152f35b346103a95760003660031901126103a957602060ff602154166040519015158152f35b346103a95760003660031901126103a9576000546040516001600160a01b039091168152602090f35b346103a95760a03660031901126103a95760443560043560243560643560028110156103a95760843593611a42614e76565b611a4a614e0d565b836000526004602052604060002093600785019560ff875460401c1615611fff57600586015485101580611ff1575b15611fb65760038601805490818711611f7857600488015460ff811615611ed25761ffff8160381c1686101580611ec1575b15611e845762015180840463ffffffff8260581c168110159182611e70575b505015611e35575b8754806000526002602052604060002092611b4a611b4360ff611b3b6060604051611afc816148f2565b89546001600160a01b03808216835260a082901c86166020840190815260a89290921c8616151560408401526001909b0154909a169101819052615209565b965116614b2b565b858b61530e565b9087612710039061271082116109c457611b79612710611b6e8d94611b7e96614b3c565b04600c541115614c7f565b6149a3565b825560005260156020526040600020611b98888254614987565b90555415611e20575b61ffff611bbf601d5498611bb48a614994565b601d55549342614987565b985460101c16906000988615600014611e1957611bda615148565b935b60405195611be98761490e565b865260208601523360408601528760608601528560808601524260a086015260c085015260e0840152610100830152610120820152611c2c836101408301614cbd565b8561016082015285610180820152856101a0820152856101c0820152856101e082015285610200820152848652601e6020526040862090805182556020810151600183015560018060a01b03604082015116600283019060018060a01b03166001600160601b0360a01b825416179055606081015160038301556080810151600483015560a0810151600583015560c0810151600683015560e0810151600783015561010081015160088301556101208101516009830155600a82016101408201516002811015611e0557604089899795600b6102007f2985a0f55b778a906ac6ba5d8cd38741b9763eb5a63e13a91f87ee55522173569997611dd460209f988d98611de59a5060ff80198354169116178155611d636101608401511515829061ff00825491151560081b169061ff001916179055565b61018083015181546101a08501516101c08601516101e087015190151560201b64ff000000001691151560181b63ff0000001693151560101b62ff00001662010000600160c81b031990931692909217929092179190911760289190911b65010000000000600160c81b0316179055565b01519101553381528a805220614cc9565b611df6604051928392339784614cef565b0390a360018055604051908152f35b634e487b7160e01b89526021600452602489fd5b8993611bdc565b875468ff000000000000000019168855611ba1565b60405162461bcd60e51b81526020600482015260136024820152726c6f636b7570206f7574206f662072616e676560681b6044820152606490fd5b60781c63ffffffff16101590508a80611aca565b60405162461bcd60e51b8152602060048201526015602482015274646973636f756e74206f7574206f662072616e676560581b6044820152606490fd5b5061ffff8160481c16861115611aab565b61ffff8160081c168603611f335763ffffffff9060181c166201518084040315611ad25760405162461bcd60e51b815260206004820152601560248201527406d75737420757365206669786564206c6f636b757605c1b6044820152606490fd5b60405162461bcd60e51b815260206004820152601760248201527f6d7573742075736520666978656420646973636f756e740000000000000000006044820152606490fd5b60405162461bcd60e51b8152602060048201526016602482015275696e73756666696369656e742072656d61696e696e6760501b6044820152606490fd5b60405162461bcd60e51b8152602060048201526013602482015272616d6f756e74206f7574206f662072616e676560681b6044820152606490fd5b506006860154851115611a79565b60405162461bcd60e51b8152602060048201526016602482015275636f6e7369676e6d656e74206e6f742061637469766560501b6044820152606490fd5b346103a95760003660031901126103a957602060ff60135460081c166040519015158152f35b346103a95760203660031901126103a957600435600052601e602052610220604060002080549060018101549060018060a01b03600282015416600382015460048301546005840154600685015490600786015492600887015494600988015496600b600a8a0154990154996040519b8c5260208c015260408b015260608a0152608089015260a088015260c087015260e0860152610100850152610120840152612115610140840160ff83166148ae565b60ff8160081c16151561016084015260ff8160101c16151561018084015260ff8160181c1615156101a084015260ff8160201c1615156101c084015260018060a01b039060281c166101e0830152610200820152f35b346103a9576121793661485a565b6018546001600160a01b03163314801561238a575b61219790614d0f565b61219f614e76565b6121a7614e0d565b6121b46032821115614d4a565b60005b8181106121c45760018055005b806121d26001928486614d88565b358015801561237e575b6123785780600052601e60205260406000209060028201848060a01b03815416158015612366575b8015612355575b8015612344575b61233c576006830154421061233c5760207f880f2ef2613b092f1a0a819f294155c98667eb294b7e6bf7a3810278142c1a1c91600a8501630100000063ff00000019825416179055600385019487865491019081546000526015845261227e60406000209182546149a3565b905554806122d557506122bc878060a01b038254168654907f0000000000000000000000000000000000000000000000000000000000000000614e98565b868060a01b039054169354604051908152a35b016121b7565b6000526002825261233760406000206040516122f0816148f2565b606082549260ff8c8060a01b03851694858552818160a01c168986015260a81c16151560408401528b808060a01b0391015416910152888060a01b03835416875491614e98565b6122bc565b5050506122cf565b5060ff600a84015460181c16612212565b5060ff600a84015460201c1661220b565b5060ff600a84015460101c1615612204565b506122cf565b50601d548110156121dc565b503360009081526019602052604090205460ff1661218e565b346103a95760003660031901126103a9576123bc614de4565b6123c4614e0d565b6000805460ff60a01b1916600160a01b1790556040513381527f62e78cea01bee320cd4e420270b5ea74000d11b0c9f74754ebdbfc544b05a25890602090a1005b346103a95760003660031901126103a9576007546040516001600160a01b039091168152602090f35b346103a95760203660031901126103a9577ff863082dfb2e420e73e3835cf6a5ca9975a68401d1b1e1819aa8edb08005109a602061246a614797565b612472614de4565b151560ff196013541660ff821617601355604051908152a1005b346103a95760203660031901126103a9576004356000526004602052610260604060002080549060ff60018060a01b03600183015416916002810154600382015463ffffffff600484015460058501549260068601549460086007880154970154986040519a8b5260208b015260408a015260608901528581161515608089015261ffff8160081c1660a0890152818160181c1660c089015261ffff8160381c1660e089015261ffff8160481c16610100890152818160581c1661012089015260781c1661014087015261016086015261018085015281811615156101a0850152818160081c1615156101c085015261ffff8160101c166101e085015263ffffffff8160201c1661020085015260401c161515610220830152610240820152f35b346103a95760003660031901126103a9576125c6614de4565b600080546001600160a01b0319811682556001600160a01b03167f8be0079c531659141344cd1fd0a4f28419497f9722a3daafe3b4186f6b6457e08280a3005b346103a95760203660031901126103a957600435612622614e76565b60ff6021541615612982576000818152601e6020526040902060028101549091906001600160a01b03166126578115156148bb565b600a83019081549060ff8260101c1680612974575b80612966575b156129215733602883901c6001600160a01b031614908115612917575b508015612903575b80156128ef575b80156128d7575b15612892576126bb600585015460225490614987565b4210801590612877575b15612832576401000000009064ff0000000019161781556003830154600184015460005260156020526126fe60406000209182546149a3565b9055805460ff811660028110156108a4576127ca5750600080808060018060a01b03855460281c16600b880154905af16127366149b0565b5015612791576040600b7fbaaee93bed811019da888f1cb314bc4d6a1f81639c738931b3e400e3d3568b7c925b5494015493815194855261277d6020860160ff83166148ae565b60281c6001600160a01b031693a360018055005b60405162461bcd60e51b8152602060048201526011602482015270115512081c99599d5b990819985a5b1959607a1b6044820152606490fd5b600b848101547fbaaee93bed811019da888f1cb314bc4d6a1f81639c738931b3e400e3d3568b7c93604093909161282d9160281c6001600160a01b03167f0000000000000000000000000000000000000000000000000000000000000000614e98565b612763565b60405162461bcd60e51b815260206004820152601e60248201527f746f6f206561726c7920666f7220656d657267656e637920726566756e6400006044820152606490fd5b50600684015462278d0081018091116109c4574210156126c5565b60405162461bcd60e51b815260206004820152601960248201527f6e6f7420617574686f72697a656420666f7220726566756e64000000000000006044820152606490fd5b5033600052601960205260ff604060002054166126a5565b506018546001600160a01b0316331461269e565b506000546001600160a01b03163314612697565b905033148561268f565b60405162461bcd60e51b815260206004820152601860248201527f696e76616c696420737461746520666f7220726566756e6400000000000000006044820152606490fd5b5060ff8260201c1615612672565b5060ff8260181c161561266c565b60405162461bcd60e51b815260206004820152601a60248201527f656d657267656e637920726566756e64732064697361626c65640000000000006044820152606490fd5b346103a95760203660031901126103a9576001600160a01b036129e86147f4565b166000526019602052602060ff604060002054166040519015158152f35b346103a95760203660031901126103a957600435612a22614e76565b600081815260046020526040902060018101546001600160a01b03163303612cf8576007810190815460ff8160401c1615612cc657600382018054938415612c8b5760009260ff60401b191690555580548060005260146020528260406000205410612c465760005260146020526040600020612aa08382546149a3565b9055546000526002602052604060002060405190612abd826148f2565b80549060ff60018060a01b03831692838552818160a01c16602086015260a81c16151560408401526001808060a01b0391015416606083015215612c115751612b1290829033906001600160a01b0316614e98565b81600052601660205260406000205480612b59575b5060207f3dd02a954fe828adfd7751fff7ad2d1808ab46d491c857dfcc6230de19e391a591604051908152a260018055005b82600052601660205260006040812055600080808084335af1612b7a6149b0565b5015612bd8577f3dd02a954fe828adfd7751fff7ad2d1808ab46d491c857dfcc6230de19e391a591602091604051908152847fc841337ce53a0f69ac0a42e2ecc859f367843075940f41fdfd63a65dbff9fc19843393a39150612b27565b60405162461bcd60e51b815260206004820152601160248201527019d85cc81c99599d5b990819985a5b1959607a1b6044820152606490fd5b60405162461bcd60e51b815260206004820152600d60248201526c34b73b30b634b2103a37b5b2b760991b6044820152606490fd5b60405162461bcd60e51b815260206004820152601e60248201527f696e73756666696369656e74206465706f73697465642062616c616e636500006044820152606490fd5b60405162461bcd60e51b81526020600482015260136024820152726e6f7468696e6720746f20776974686472617760681b6044820152606490fd5b60405162461bcd60e51b815260206004820152600a6024820152696e6f742061637469766560b01b6044820152606490fd5b60405162461bcd60e51b815260206004820152600d60248201526c3737ba1031b7b739b4b3b732b960991b6044820152606490fd5b346103a95760003660031901126103a9576020600a54604051908152f35b346103a95760803660031901126103a95760443560243560043560028310156103a95760643591612d7a614e76565b612d82614e0d565b612d8d82151561494d565b612d9b601154841115614c41565b6040516370a0823160e01b81523060048201526020816024817f00000000000000000000000000000000000000000000000000000000000000006001600160a01b03165afa80156115df5760009061314a575b6000805260156020527fa31547ce6245cdb9ecea19cf8c7eb9f5974025bb4075011409251ae855b30aed54612e249250906149a3565b821161310c57600d5482116130d957612e3b615008565b612e6e612e677f0000000000000000000000000000000000000000000000000000000000000000614b2b565b828561530e565b826127100361271081116109c457611b6e61271091612e8c93614b3c565b6000805260156020526040600020612ea5848254614987565b9055612ecc612ec3601d5495612eba87614994565b601d5542614987565b600f5490614987565b600091866130d257612edc615148565b905b60405192612eeb8461490e565b8484528460208501523360408501528660608501528560808501524260a085015260c084015260e08301526103e8610100830152610120820152612f33866101408301614cbd565b8161016082015281610180820152816101a0820152816101c0820152816101e082015281610200820152848252601e6020526040822090805182556020810151600183015560018060a01b03604082015116600283019060018060a01b03166001600160601b0360a01b825416179055606081015160038301556080810151600483015560a0810151600583015560c0810151600683015560e0810151600783015561010081015160088301556101208101516009830155600a820161014082015160028110156130be57815461016084015161ff0090151560081b1660ff9290921661ffff1990911617178155600b916102009161303190611d63565b01519101553381526020805261304a8460408320614cc9565b601f5490600160401b8210156130aa57506020948492836130976115228560017f2985a0f55b778a906ac6ba5d8cd38741b9763eb5a63e13a91f87ee55522173569701601f55601f6147dc565b9055611df6604051928392339784614cef565b634e487b7160e01b81526041600452602490fd5b634e487b7160e01b85526021600452602485fd5b8290612ede565b60405162461bcd60e51b815260206004820152600b60248201526a0caf0c6cacac8e640dac2f60ab1b6044820152606490fd5b60405162461bcd60e51b8152602060048201526016602482015275696e73756666696369656e7420696e76656e746f727960501b6044820152606490fd5b506020813d602011613176575b816131646020938361492b565b810103126103a957612e249051612dee565b3d9150613157565b346103a95760003660031901126103a9576020601d54604051908152f35b346103a95760003660031901126103a9576020600d54604051908152f35b346103a95760003660031901126103a957602060ff60005460a01c166040519015158152f35b346103a95760003660031901126103a9576020601754604051908152f35b346103a95760403660031901126103a9576132176147f4565b61321f61480a565b90613228614de4565b60405163313ce56760e01b81526001600160a01b03919091169190602081600481865afa9081156115df5760089160ff9160009161338a575b50160361334f5760405163313ce56760e01b81526001600160a01b03919091169190602081600481865afa9081156115df5760089160ff91600091613330575b5016036132f757806001600160601b0360a01b6006541617600655816001600160601b0360a01b60075416176007557f34a557dba1637cb357638b5ca960120a9bfa14b86aaa9efaef74bce526773399600080a3005b60405162461bcd60e51b8152602060048201526011602482015270657468206665656420646563696d616c7360781b6044820152606490fd5b613349915060203d6020116115d8576115ca818361492b565b856132a1565b60405162461bcd60e51b8152602060048201526013602482015272746f6b656e206665656420646563696d616c7360681b6044820152606490fd5b6133a3915060203d6020116115d8576115ca818361492b565b85613261565b346103a95760403660031901126103a9576133c261480a565b600435600052601b60205260406000209060018060a01b0316600052602052602060ff604060002054166040519015158152f35b346103a95760203660031901126103a95761340f614de4565b600435601155005b346103a95760003660031901126103a9576020600e54604051908152f35b346103a95760203660031901126103a957602061085e600435614b6f565b346103a95760203660031901126103a95760043561346f614de4565b67016345785d8a000081116134af576020817f3f02cac10813953e05e86f59dedf68f86fade7712279751ea10e50fe57f83ad192601755604051908152a1005b60405162461bcd60e51b81526020600482015260146024820152730cec2e640c8cae0dee6d2e840e8dede40d0d2ced60631b6044820152606490fd5b346103a95760203660031901126103a957600435600052601c6020526020604060002054604051908152f35b346103a95760003660031901126103a9576020600554604051908152f35b346103a95760003660031901126103a95761354e614de4565b60005460ff8160a01c16156135955760ff60a01b19166000556040513381527f5db9ee0a495bf2e6ff9c91a7834c1ba4fdd244a5e8aa4e537bd38aeae4b073aa90602090a1005b638dfc202b60e01b60005260046000fd5b346103a95760003660031901126103a9576040517f00000000000000000000000000000000000000000000000000000000000000006001600160a01b03168152602090f35b346103a95760003660031901126103a957602060405160ff7f0000000000000000000000000000000000000000000000000000000000000000168152f35b346103a95760203660031901126103a9577f6b51c7df853e7ef8a7b6bda387bb4a86285f93acf5f0819f0e94de7e4e9227c86020600435613668614de4565b80601055604051908152a1005b346103a95760003660031901126103a957602060ff601354166040519015158152f35b346103a95760203660031901126103a9576004356136b4614e76565b6136bc614e0d565b6000818152601e602052604090206002810180549192916001600160a01b03166136e78115156148bb565b600a84019182549160ff8360101c16806138af575b806138a0575b61370b90614af3565b6006860154421061387257330361383b577f880f2ef2613b092f1a0a819f294155c98667eb294b7e6bf7a3810278142c1a1c92630100000060209363ff000000191617905560038501946001865491019081546000526015845261377560406000209182546149a3565b905554806137d15750805485546137b5916001600160a01b03167f0000000000000000000000000000000000000000000000000000000000000000614e98565b5493546040519081526001600160a01b0390941693a360018055005b6000526002825261383660406000206040516137ec816148f2565b606082549260ff60018060a01b03851694858552818160a01c168986015260a81c16151560408401526001808060a01b039101541691015260018060a01b03835416875491614e98565b6137b5565b60405162461bcd60e51b815260206004820152600f60248201526e6e6f742062656e656669636961727960881b6044820152606490fd5b60405162461bcd60e51b81526020600482015260066024820152651b1bd8dad95960d21b6044820152606490fd5b50601883901c60ff1615613702565b5060ff8360201c16156136fc565b346103a95760003660031901126103a957601f5460125480821115613ab3576138e681836149a3565b915b600092805b82811080613aaa575b1561398757613904816147a6565b90549060031b1c600052601e6020526040600020600a8101549060ff8260201c16159182613978575b508161395d575b50613948575b61394390614994565b6138ed565b9361395561394391614994565b94905061393a565b61396f915060050154600e5490614987565b42111586613934565b60101c60ff161591508761392d565b84838361399383614adb565b926139a1604051948561492b565b808452601f196139b082614adb565b013660208601376000915b83811080613aa1575b15613a8f576139d2816147a6565b90549060031b1c600052601e6020526040600020600a8101549060ff8260201c16159182613a80575b5081613a65575b50613a16575b613a1190614994565b6139bb565b91613a20836147a6565b90549060031b1c92613a3182614994565b938651831015613a4f576020613a119360051b880101529050613a08565b634e487b7160e01b600052603260045260246000fd5b613a77915060050154600e5490614987565b42111586613a02565b60101c60ff16159150876139fb565b60405180613a9d8782614820565b0390f35b508183106139c4565b508385106138f6565b6000916138e8565b346103a95760203660031901126103a957600435613ad7614de4565b80151580613b2f575b15613aea57601a55005b60405162461bcd60e51b815260206004820152601a60248201527f696e76616c696420726571756972656420617070726f76616c730000000000006044820152606490fd5b50600a811115613ae0565b346103a95760203660031901126103a957600435613b56614e0d565b80151580613e0a575b15613dd75760009060005b601f54811080613dce575b15613c4157613b83816147a6565b90549060031b1c600052601e602052604060002060018060a01b03600282015416151580613c2f575b80613c1d575b80613bf7575b613bcc575b50613bc790614994565b613b6a565b600a01805464ff00000000191664010000000017905591613bc790613bf090614994565b9290613bbd565b50613c096005820154600e5490614987565b6201518081018091116109c4574211613bb8565b5060ff600a82015460201c1615613bb2565b5060ff600a82015460101c1615613bac565b82613c4857005b600080805b601f54831080613dc4575b15613d3f57613c66836147a6565b905460039190911b1c6000818152601e6020526040902060028101546001600160a01b031615159081613d2c575b81613d19575b81613cf1575b5015613cdc5781613cbc9185613cc29403613cc8575b50614994565b92614994565b91613c4d565b613cd4611522836147a6565b905585613cb6565b509190613ceb613cc291614994565b91614994565b613d03915060050154600e5490614987565b6201518081018091116109c45742111585613ca0565b600a81015460101c60ff16159150613c9a565b600a81015460201c60ff16159150613c94565b91505b601f5482811115613d8d578015613d775760001901613d60816147a6565b8154906000199060031b1b19169055601f55613d42565b634e487b7160e01b600052603160045260246000fd5b50905080613d9757005b60207f9ddcd36b168776e324d99e26df4ddc8da838a0521965aab1cc126e62153455bb91604051908152a1005b5060648210613c58565b50818310613b75565b60405162461bcd60e51b815260206004820152600b60248201526a0d2dcecc2d8d2c840dac2f60ab1b6044820152606490fd5b506064811115613b5f565b346103a95760003660031901126103a9576020601154604051908152f35b346103a95760203660031901126103a957602061085e6004356149f0565b346103a95760003660031901126103a9576020600854604051908152f35b346103a95760203660031901126103a9577f32aaf86ee178a234a949738196b431665f8042b755c7922bc2c40e6e51fbe9046020613eab614797565b613eb3614de4565b151560135461ff008260081b169061ff00191617601355604051908152a1005b346103a95760203660031901126103a9576001600160a01b03613ef46147f4565b1660005260208052604060002060405190816020825491828152019160005260206000209060005b818110613f3f57613a9d85613f338187038261492b565b60405191829182614820565b8254845260209093019260019283019201613f1c565b6101e03660031901126103a957613f6a614788565b6064359061ffff821682036103a9576084359063ffffffff821682036103a95760a43561ffff811681036103a95760c43561ffff811681036103a95760e4359463ffffffff861686036103a957610104359063ffffffff821682036103a9576101643580151581036103a957610184359182151583036103a9576101a4359361ffff851685036103a9576101c4359663ffffffff881688036103a95761400e614e0d565b600435600052600260205260406000206040519061402b826148f2565b80546001600160a01b03808216845260ff60a083901c8116602086015260a89290921c909116158015604085015260019092015416606083015261455157614076602435151561494d565b6101443561012435116145155761ffff881661ffff8316116144d75763ffffffff831663ffffffff8d161161449b57601754341061445657516140c99060243590309033906001600160a01b0316614e2d565b600435600052601460205260406000206140e66024358254614987565b90556005549a6140f58c614994565b6005556040519a6102608c01988c8a1067ffffffffffffffff8b1117611562578c60e061ffff63ffffffff9e968f829e9683829c839b829a60405260043589523360208a015260243560408a015260243560608a0152151560808901521660a08701521660c085015216910152166101008c0152166101208a015216610140880152610124356101608801526101443561018088015215156101a087015215156101c0860152166101e08401521661020082015260016102208201524261024082015281600052600460205260086102406040600020928051845560018060a01b03602082015116600185019060018060a01b03166001600160601b0360a01b82541617905560408101516002850155606081015160038501556004840161422f60808301511515829060ff801983541691151516179055565b60a0820151815466ffffffff00000060c085015160181b169168ffff0000000000000060e086015160381b169061ffff60481b61010087015160481b169163ffffffff60581b61012088015160581b169363ffffffff60781b61014089015160781b169563ffffffff60781b199363ffffffff60581b199262ffff0061ffff60481b19928e1b169068ffffffffffffffff001916171617161716171717905561016081015160058501556101808101516006850155600784016143056101a08301511515829060ff801983541691151516179055565b6101c0820151815461ff00191690151560081b61ff00161781556101e0820151815463ffff000067ffffffff0000000061020086015160201b169260101b169067ffffffffffff0000191617178155610220820151151560ff60401b82549160401b169060ff60401b1916179055015191015580600052601660205234604060002055807f7d2fe73377c27fea70551d047fa2b5d20fde8d4f5f4de7607cfa68e791edc0386020604051348152a26017548034116143fb575b60208260405160243581523390827f36ffd597f786348fd508cae0644719351def3fea42053a8ad3a9d22716896bea8560043593a4604051908152f35b6000808061440a8194346149a3565b335af16144156149b0565b501561442157816143be565b60405162461bcd60e51b815260206004820152600d60248201526c1c99599d5b990819985a5b1959609a1b6044820152606490fd5b60405162461bcd60e51b815260206004820152601860248201527f696e73756666696369656e7420676173206465706f73697400000000000000006044820152606490fd5b60405162461bcd60e51b8152602060048201526014602482015273696e76616c6964206c6f636b75702072616e676560601b6044820152606490fd5b60405162461bcd60e51b8152602060048201526016602482015275696e76616c696420646973636f756e742072616e676560501b6044820152606490fd5b60405162461bcd60e51b8152602060048201526014602482015273696e76616c6964206465616c20616d6f756e747360601b6044820152606490fd5b60405162461bcd60e51b815260206004820152601060248201526f746f6b656e206e6f742061637469766560801b6044820152606490fd5b346103a95760203660031901126103a95760043580600052601e60205260ff600a60406000206145c660018060a01b0360028301541615156148bb565b01541660028110156108a4576001036145ec5761085e6145e7602092614b6f565b615260565b60405162461bcd60e51b81526020600482015260086024820152676e6f74205553444360c01b6044820152606490fd5b346103a95760203660031901126103a957600435601f548110156103a9576116fa6020916147a6565b346103a95760603660031901126103a957600435602435614664614788565b9161466d614de4565b8015158061477f575b156147495764e8d4a51000811161470d57620f4240821015806146fd575b156146b85760085560095542600a5560ff8019600b54169115151617600b55600080f35b60405162461bcd60e51b815260206004820152601760248201527f657468207072696365206f7574206f6620626f756e64730000000000000000006044820152606490fd5b506509184e72a000821115614694565b60405162461bcd60e51b81526020600482015260146024820152730e8ded6cadc40e0e4d2c6ca40e8dede40d0d2ced60631b6044820152606490fd5b60405162461bcd60e51b815260206004820152600e60248201526d696e76616c69642070726963657360901b6044820152606490fd5b50811515614676565b6044359081151582036103a957565b6004359081151582036103a957565b601f54811015613a4f57601f60005260206000200190600090565b600354811015613a4f57600360005260206000200190600090565b8054821015613a4f5760005260206000200190600090565b600435906001600160a01b03821682036103a957565b602435906001600160a01b03821682036103a957565b602060408183019282815284518094520192019060005b8181106148445750505090565b8251845260209384019390920191600101614837565b9060206003198301126103a95760043567ffffffffffffffff81116103a957826023820112156103a95780600401359267ffffffffffffffff84116103a95760248460051b830101116103a9576024019190565b9060028210156108a45752565b156148c257565b60405162461bcd60e51b815260206004820152600860248201526737379037b33332b960c11b6044820152606490fd5b6080810190811067ffffffffffffffff82111761156257604052565b610220810190811067ffffffffffffffff82111761156257604052565b90601f8019910116810190811067ffffffffffffffff82111761156257604052565b1561495457565b60405162461bcd60e51b815260206004820152600b60248201526a1e995c9bc8185b5bdd5b9d60aa1b6044820152606490fd5b919082018092116109c457565b60001981146109c45760010190565b919082039182116109c457565b3d156149eb573d9067ffffffffffffffff821161156257604051916149df601f8201601f19166020018461492b565b82523d6000602084013e565b606090565b806000526002602052602460206040600020604051614a0e816148f2565b606082549260ff60018060a01b03851694858552818160a01c168786015260a81c16151560408401526001808060a01b0391015416910152604051928380926370a0823160e01b82523060048301525afa9081156115df57600091614aa6575b508160005260156020526040600020548110614a9f57614a9c916000526015602052604060002054906149a3565b90565b5050600090565b906020823d602011614ad3575b81614ac06020938361492b565b81010312614ad057505138614a6e565b80fd5b3d9150614ab3565b67ffffffffffffffff81116115625760051b60200190565b15614afa57565b60405162461bcd60e51b815260206004820152600960248201526862616420737461746560b81b6044820152606490fd5b60ff16604d81116109c457600a0a90565b818102929181159184041417156109c457565b8115614b59570490565b634e487b7160e01b600052601260045260246000fd5b6000908152601e602052604090206002810154614b96906001600160a01b031615156148bb565b60018101548015614bf45760005260026020526004614bd2614bc260ff60406000205460a01c16614b2b565b600384015460078501549061530e565b910154612710039061271082116109c45761271091614bf091614b3c565b0490565b506004614bd2614c237f0000000000000000000000000000000000000000000000000000000000000000614b2b565b614bc2565b908160209103126103a9575160ff811681036103a95790565b15614c4857565b60405162461bcd60e51b815260206004820152600f60248201526e6c6f636b757020746f6f206c6f6e6760881b6044820152606490fd5b15614c8657565b60405162461bcd60e51b815260206004820152600f60248201526e1b5a5b881d5cd9081b9bdd081b595d608a1b6044820152606490fd5b60028210156108a45752565b805490600160401b8210156115625781611522916001614ceb940181556147dc565b9055565b604090614d0d939594929560608201968252602082015201906148ae565b565b15614d1657565b60405162461bcd60e51b815260206004820152600c60248201526b2737ba1030b8383937bb32b960a11b6044820152606490fd5b15614d5157565b60405162461bcd60e51b815260206004820152600f60248201526e626174636820746f6f206c6172676560881b6044820152606490fd5b9190811015613a4f5760051b0190565b15614d9f57565b60405162461bcd60e51b815260206004820152601960248201527f707269636520766f6c6174696c697479206578636565646564000000000000006044820152606490fd5b6000546001600160a01b03163303614df857565b63118cdaa760e01b6000523360045260246000fd5b60ff60005460a01c16614e1c57565b63d93c066560e01b60005260046000fd5b6040516323b872dd60e01b60208201526001600160a01b039283166024820152929091166044830152606480830193909352918152614d0d91614e7160848361492b565b6152b3565b600260015414614e87576002600155565b633ee5aeb560e01b60005260046000fd5b60405163a9059cbb60e01b60208201526001600160a01b039092166024830152604480830193909352918152614d0d91614e7160648361492b565b15614eda57565b60405162461bcd60e51b81526020600482015260146024820152731b585b9d585b081c1c9a58d9481d1bdbc81bdb1960621b6044820152606490fd5b51906001600160501b03821682036103a957565b908160a09103126103a957614f3e81614f16565b91602082015191604081015191614a9c608060608401519301614f16565b15614f6357565b60405162461bcd60e51b815260206004820152600960248201526862616420707269636560b81b6044820152606490fd5b15614f9b57565b60405162461bcd60e51b815260206004820152600b60248201526a1cdd185b19481c9bdd5b9960aa1b6044820152606490fd5b15614fd557565b60405162461bcd60e51b815260206004820152600b60248201526a7374616c6520707269636560a81b6044820152606490fd5b60ff600b54166150ea57600654604051633fabe5a360e21b81529060a090829060049082906001600160a01b03165afa80156115df576000809160009160009161509d575b839450906001600160501b03806150779361506d6000614a9c9813614f5c565b1691161015614f94565b8015159081615087575b50614fce565b6150929150426149a3565b601054101538615081565b50505050614a9c6001600160501b036150776150d1829460a03d60a0116150e3575b6150c9818361492b565b810190614f2a565b929750879650945090925061504d9050565b503d6150bf565b600854801561510c57614a9c615102600a54426149a3565b6010541015614ed3565b60405162461bcd60e51b81526020600482015260146024820152731b585b9d585b081c1c9a58d9481b9bdd081cd95d60621b6044820152606490fd5b60ff600b54166151ac57600754604051633fabe5a360e21b81529060a090829060049082906001600160a01b03165afa80156115df576000809160009160009161509d57839450906001600160501b03806150779361506d6000614a9c9813614f5c565b60095480156151c457614a9c615102600a54426149a3565b60405162461bcd60e51b815260206004820152601860248201527f6d616e75616c20657468207072696365206e6f742073657400000000000000006044820152606490fd5b604051633fabe5a360e21b81529060a090829060049082906001600160a01b03165afa80156115df576000809160009160009161509d57839450906001600160501b03806150779361506d6000614a9c9813614f5c565b614a9c906305f5e100620f424061527882828561530e565b9209151590614987565b9061529681670de0b6b3a76400008461530e565b908015614b5957670de0b6b3a7640000614a9c9309151590614987565b906000602091828151910182855af1156115df576000513d61530557506001600160a01b0381163b155b6152e45750565b635274afe760e01b60009081526001600160a01b0391909116600452602490fd5b600114156152dd565b909160001983830992808302928380861095039480860395146153a3578483111561538a5790829109816000038216809204600281600302188082026002030280820260020302808202600203028082026002030280820260020302809102600203029360018380600003040190848311900302920304170290565b82634e487b71600052156003026011186020526024601cfd5b505090614a9c9250614b4f56fea2646970667358221220ac42c347a13bbc8ef8ec7b8540ef1c0b0ca92e4918e3e00fd85636cbeeacca9d64736f6c634300081c0033",
  "linkReferences": {},
  "deployedLinkReferences": {}
}